:020000040800F2
:1000000000A80020B9020008EF820008BD340008F3
:10001000ED82000805230008A5AF000800000000DD
:10002000000000000000000000000000E99B000844
:1000300057260008000000001B8F0008F19E0008F2
:10004000D3020008D3020008D3020008D30200083C
:10005000D3020008D3020008D3020008D30200082C
:10006000D3020008D3020008D3020008D30200081C
:10007000D3020008D3020008D3020008D30200080C
:10008000D3020008D3020008D3020008D3020008FC
:10009000D3020008D3020008D3020008D3020008EC
:1000A000D3020008D3020008D3020008D3020008DC
:1000B000459F0008D3020008719F0008D302000882
:1000C000D3020008D3020008D3020008D3020008BC
:1000D000D3020008B1AC000815AD00087DAD0008E2
:1000E000D3020008D3020008D3020008D30200089C
:1000F000D3020008D3020008D3020008D30200088C
:10010000D3020008D3020008D3020008D30200087B
:10011000D3020008D3020008D302000809A0000897
:10012000D3020008D3020008D3020008D30200085B
:1001300000F002F800F0B0F80AA090E8000C824449
:100140008344AAF10107DA4501D100F0A5F8AFF226
:10015000090EBAE80F0013F0010F18BFFB1A43F0A5
:1001600001031847F8FC000018FD00000A444FF096
:10017000000C10F8013B13F0070408BF10F8014B06
:100180001D1108BF10F8015B641E05D010F8016B4B
:10019000641E01F8016BF9D113F0080F1EBF10F8AF
:1001A000014BAD1C0C1B09D16D1E58BF01F801CBD2
:1001B000FAD505E014F8016B01F8016B6D1EF9D555
:1001C0009142D6D37047000000230024002500266A
:1001D000103A28BF78C1FBD8520728BF30C148BFAA
:1001E0000B6070476E2900F04383702900F0858111
:1001F00066290DF0BC8765290DF0B98767290DF0D8
:10020000B6876129AFF3008003681B0A28BF41F05D
:100210008001692900F0F680642900F0F3807529D7
:1002200000F0F0806F2900F03A84782900F05181C5
:10023000E92900F0D583E42900F0D283F52900F004
:10024000CF83EF2900F03784F82900F0508103684C
:10025000DB0928BF41F08001632900F04483732942
:1002600000F04983E32900F09386F32900F0988693
:10027000002070471FB500F0EDFE040000200021B3
:100280000DF0CAF8401C6060002000210DF0AEF8AF
:10029000E0601FBD10B510BD00F0AEFE1146FFF7C7
:1002A000E9FF0BF097FD00F08BFF03B4FFF7F2FFBF
:1002B00003BC0AF09AFF000009488047094800473C
:1002C000FEE7FEE7FEE7FEE7FEE7FEE7FEE7FEE706
:1002D000FEE7FEE704480549054A064B7047000063
:1002E000F59E00083101000800A2002000A80020AF
:1002F00000A4002000A40020704700001CB50C469C
:10030000064B7B4469460090204600F0CAFA04463A
:100310000020694600F0D8FA20461CBDC305000045
:100320000FB4044910B503AA029800F0E9FA10BC12
:100330005DF814FB1C0100200FB41CB5084B06AA85
:100340007B4469460090059800F0ABFA0446002013
:10035000694600F0B9FA20461CBC5DF814FB0000A9
:100360008505000070B5044685690068C10601D5A1
:10037000302600E02026C00707D070BDD4E9012157
:1003800030469047206A401C20626D1EF6D570BD35
:1003900070B5044685690078C00707D170BDD4E9FF
:1003A000012120209047206A401C20626D1EF6D556
:1003B00070BD70B50C460546012A05D02878800628
:1003C00000D5EA69002302E0012305E05B1C9342AB
:1003D00002D2E05C0028F9D1A869E618C01AA86129
:1003E000286A184428622846FFF7BCFF04E0D5E9D4
:1003F000012114F8010B9047B442F8D32846FFF7C7
:10040000C7FF70BD2DE9F04106460024106875292C
:10041000314616A510D000F0C0F9002802DA40429B
:1004200013A507E031688A0701D512A502E0490744
:1004300004D511A5012401E000F0B8F900210A2239
:1004400006F1240709E0B0FBF2FCB0FBF2F302FB7B
:100450001C00303078541846491C0028F3D123463C
:100460002A463046BDE8F04100F0A9B9000000007E
:100470002D0000002B00000020000000F0B40D460D
:100480000188090502D5214C7C4402E01F4C7C44C4
:100490000E34002100F1240608E002F00F071209D3
:1004A000E75D42EA03721B097754491C52EA0307CD
:1004B000F3D102780023120704D5702D06D009B1BC
:1004C000022311342246F0BC00F079B90123103424
:1004D000F8E770B504460D462146106800F066F94D
:1004E000024629462046BDE870400023C6E7D21DDB
:1004F00022F00703D3E90023C0E70368126843F042
:10050000200303600823C3610023B7E768F60000F7
:100510002DE9F05F894604464FF0000ADFF874B118
:10052000FB44C0F820A02046E1688847002874D02A
:10053000252806D0D4E901219047206A401C20627A
:10054000F1E700265F462046E168884720280546F7
:1005500007DB312D05D2781910F8200C08B10643BD
:10056000F1E7B00701D526F00406C4F81CA0002767
:10057000C4F818A02A2D09D028460AF02FFE38B357
:1005800004EB8708303DC8F8185019E059F8041BEF
:10059000204604EB87029161E1688847012F0546F8
:1005A00018D1E069002820DA26F020061DE0D8F8EE
:1005B000180000EB800005EB40003038C8F8180048
:1005C0002046E168884705460AF008FE0028EED17B
:1005D000012F0AD02E2D08D12046E16888477F1CC4
:1005E0000546022F46F02006C4DBA069002803DA86
:1005F000404246F00106A061F00701D026F0100647
:100600006C2D0BD0682D09D04C2D39D06A2D35D0EA
:10061000742D35D07A2D33D016E038E0E1682F46BE
:1006200020468847B842054609D16C2F26D04FF4A2
:100630008060E168064320468847054604E06C2F49
:100640001AD04FF4807006430DB3A5F1410019286C
:1006500002D8203546F400664A46294620462660E0
:100660004E46FFF7BFFD80B101280BD0F61D26F0E6
:10067000070000F1080956E74020E4E78020D8E7AA
:100680000020D6E706F104094DE7284652E7206A24
:10069000BDE8F09FF8F5000030B505460B462A4648
:1006A00013F8014B12F8010B08B1A042F8D01CB1AD
:1006B000002802D06D1CF1E7284630BD10B5431C60
:1006C00002E010F8011B71B18107FAD14FF001323D
:1006D00002C88C1A8C4314EAC211F9D0C01A0A0657
:1006E00003D0C01E10BDC01A10BD0A0401D0801E68
:1006F00010BD0902FCD0401E10BD00004FF0013CAF
:1007000050F8042B51F8043B9A4221D1A2EB0C0380
:10071000934313EACC1317D150F8042B51F8043B40
:100720009A4215D1A2EB0C03934313EACC130BD1DD
:1007300050F8042B51F8043B9A4209D1A2EB0C0368
:10074000934313EACC13DBD04FF00000704700BF97
:10075000D01A01BAB1FA81F101F0180122FA01F0C0
:10076000CB40C1F12001DBB2C0B2C01A2CFA01F3B8
:10077000D11A914311EAC311E6D17047704770470F
:100780007047704710B500F0A1F9006810BD10B5B2
:10079000044600F09BF9046010BD09684A0501D5C4
:1007A00040B27047C905FCD500B2704709684A05D8
:1007B00001D5C0B27047C905FCD580B270472DE99C
:1007C000F0470D4699469246044600F12408016818
:1007D000880604D5E06921F01001216000E00120C5
:1007E000A84201DD471B00E00027A1697A1902EB4E
:1007F0000900081AA0612078C00602D42046FFF73D
:10080000B1FD002608E0D4E901211AF8060090475E
:10081000206A401C761C20624E45F4DB2078C0061E
:100820000AD52046FFF79EFD06E0D4E901213020DD
:100830009047206A401C2062381EA7F10107F4DCB3
:1008400007E0D4E9012118F805009047206A401C10
:100850002062281EA5F10105F3DC2046FFF798FD74
:100860002078000602D50220BDE8F0870120FBE7D2
:1008700011680268006A530501D508700AE0D305C3
:1008800001D5088006E0130603D5C217C1E90002AE
:1008900000E008600120704701694A1C0261087885
:1008A000704700B58FB0CDE90131002105910549B0
:1008B0007944CDE9031011466846FFF729FE0FB0D1
:1008C00000BD0000E5FFFFFF0A6802F8010B0A60A7
:1008D000704710B5436913B1AFF3008001E0FFF733
:1008E00068FD012010BD127800F124010A70002279
:1008F0004A700122EDE711684FF0FF32E9E700008E
:10090000074B70B50D467B44FFF7CBFF04462846E6
:1009100000F04AFB10B14FF0FF3070BD204670BDB3
:1009200007AF00002DE9FF5F15468A460446DFF851
:10093000AC80F8440027D8E900103E46CDE900100D
:1009400010E03AF816106A4602A800F031FB411C8C
:1009500007D02178890603D5E269391891420DD86C
:100960000744761C2078800602D5E069B84205DD90
:10097000AE42E6DB3AF816000028E2D1A069C01BBF
:10098000A0612046FFF7EEFCD8E90010CDE9001089
:10099000002017E03AF818106A4602A800F008FB99
:1009A000B0F1FF3F81460BD000250DF1080B05E0AB
:1009B000D4E901211BF8050090476D1C4D45F7D384
:1009C00008F10100B0428046E4DB206A384420622E
:1009D0002046FFF7DDFCBDE8FF9F0000FAF10000B4
:1009E0002DE9F0418046D21D22F007020025D2E910
:1009F0000002F52915A614D0011E72F1000106DAD5
:100A00000023D0EB030063EB020211A608E0D8F844
:100A100000108B0701D50FA602E0490701D50EA6ED
:100A200001251146002408F1240704E000F052F8E3
:100A300030323A55641C50EA0102F7D12B46324657
:100A400021464046BDE8F041FFF7B9BE0000000076
:100A50002D0000002B0000002000000030B4002119
:100A600000F1240408E002F00705D208303542EA1C
:100A70004372DB086554491C52EA0305F3D104684C
:100A8000002310A2250707D5A40600D421B1C4690C
:100A900001230DA2641EC46130BCFFF790BE10B5E7
:100AA000044621461068FFF781FE02462046BDE855
:100AB00010400023D2E7D21D22F00701D1E9002324
:100AC000CCE7000000000000300000000048704744
:100AD0009CA1002030B5B0F10A024FEA900E71F1EE
:100AE00000034EEA817EB0EB0E0061EB91014FEA0C
:100AF000101E4EEA017E10EB0E0041EB11114FEA81
:100B0000102E4EEA016E10EB0E0041EB11214FEA60
:100B1000104E4EEA014E10EB0E0041EB1141401811
:100B200041F100014FEAD00040EA41704FEAD101A3
:100B300010EB80054FEA810444EA907444EB010411
:100B40006D1944EB0404521BA3414FF0000348BF4E
:100B50000A3200D530BD401C41F1000130BD704764
:100B60002DE9FF4F0C461E464FF0FF378BB0D2E900
:100B70000001DDF860800A908A46C1F30A5505B984
:100B80003D46002108464FF00000BAF1000F00F486
:100B9000400005DA00EB80004FF4400101EA50000C
:100BA0004FEA9059B9F1010F00DDB9460A9850EAB1
:100BB0004A000ED044F61050A5F2FF3545432F14DD
:100BC000B8F1000F1ED07542291E1EDDC9F10002CA
:100BD0001CE0B8F1010F4FF0000001D0302103E01C
:100BE000F24305E02154401CB042FBDB30460022BA
:100BF000002121540B99C1F80880C1E900200FB0F1
:100C0000BDE8F08FBD1B6D1CDEE74A4600DA694285
:100C100006A800F063FA06AB93E8070003AB83E88D
:100C2000070050460A9900F0D4FA8DE80700A0F5B5
:100C300000501F3800900398002D0ADD42F21F017A
:100C40004A460844002303A90390684600F03DFD8E
:100C500009E0A0F500504A461F38002303A903907D
:100C6000684600F047FD8DE807000004000C03D043
:100C70004FF0FF30410800E01046B8F1000F03D0FC
:100C80000022009215461EE0751E05D4FFF722FFD4
:100C9000303262556D1EF9D5B3460122084302D0A9
:100CA00000227F1C04E02078302801D100227F1E22
:100CB000002A099784D01DE0112D07DAFFF70AFFFB
:100CC000303262556D1C50EA0102F5D1084302D062
:100CD0000098C8B10EE00021681E05E0235C625C4C
:100CE00063542254401E491C8142F7DBAB46A81BCB
:100CF000401E0990002004F80B000B98099AC0F8D8
:100D00000880C0E9002B7AE711264FF0000857E76A
:100D10002DE9F04F88460446D21D22F0070191B01C
:100D2000D1E90001CDE90A010AF044FA02460B9824
:100D3000C00F01D02D2007E02068810701D52B20AE
:100D400002E0202101EAC000032A099001D0072A0D
:100D500005DB03464146204600F080F90BE1207890
:100D6000800601D5E06900E00620B8F1650F8146F4
:100D700006D0B8F1660F18D0B8F1670F70D131E026
:100D80000020B9F1110F009001DB112301E009F1FE
:100D900001030AAA01A90CA8FFF7E2FEDDE90C7025
:100DA000002609F10105834647E001204B460090EB
:100DB0004FF000470AAA01A90CA8FFF7D1FEDDE910
:100DC0000DB00C995D46002610B909F101000D180F
:100DD000B9EB050003D4C0F1FF3609F10105A5EB1D
:100DE00009002BE0B9F1010F01DA4FF001090020F1
:100DF000B9F1110F0090484601DD112300E00346D0
:100E00000AAA01A90CA8FFF7ABFEDDE90C704D465C
:100E100000268346207800070AD4AB4500DA5D46F9
:100E200001A8012D04DD411911F8011C302907D05A
:100E30004F4502DA17F1040F04DA012082460FE071
:100E40006D1EEEE7002F02DCED1B3E4403E0781C34
:100E5000A84200DD7D1CB81B00F1010A4FF00047DD
:100E60002078000703D4AA4501DB4FF0FF3A0021A8
:100E7000B7F1004F0DF143088DF8431024D0022044
:100E80002B23002F01DA7F422D230A21021EA0F11D
:100E9000010000DC5FB197FBF1FC97FBF1F201FB75
:100EA0001C7C17460CF1300C08F801CDEEE7A8F1D8
:100EB000010003702188090501D5452100E0652165
:100EC000A0F1010800F8011C09980FA9A1EB08077F
:100ED000FF1D00B10120411901EBEA70A1693844FE
:100EE000081A401EA0612078C00602D42046FFF7F1
:100EF00039FA099828B1D4E901219047206A401CA9
:100F000020622078C00622D52046FFF72BFA1EE08B
:100F1000002E04DBB34502DD01A8805D00E0302037
:100F2000D4E901219047206A401C2062761CAAF176
:100F300001005FEA000A0AD100F08CF8C06801687D
:100F4000405CD4E901219047206A401C2062281EA1
:100F5000A5F10105DCDC07E0D4E9012118F8010B5B
:100F60009047206A401C2062381EA7F10107F3DC7D
:100F70002046FFF70DFA032011B041E610B5436992
:100F800013B1AFF3008001E0FFF7CCFC012010BDEE
:100F9000128800F1240182840022C2840122EDE73C
:100FA00011684FF0FF32E9E7007B00F080007047E6
:100FB00070B516460C46054600F044F8036893F8F1
:100FC0000101012806D0FF2C0FD8185D68B101205F
:100FD0002C7070BDD3F807013246214603F2071387
:100FE00003442846BDE8704018474FF0FF3070BDFD
:100FF000004870479CA100207546FFF7F9FFAE46F8
:1010000005006946534620F00700854618B020B514
:10101000FFF760F9BDE820404FF000064FF00007F1
:101020004FF000084FF0000B21F00701AC46ACE890
:10103000C009ACE8C009ACE8C009ACE8C0098D46FD
:101040007047000010B500F005F8001D10BD00BF8E
:10105000C9C3000000487047BCA100202DE9F04141
:101060001F46044603260168072A01F4006004DBDA
:1010700008B116A505E016A503E008B115A500E026
:1010800015A521F010002060A069C01EA0610FB15D
:10109000401EA0612046FFF765F94FB1D4E9012158
:1010A00038469047206A401C2062C01C206206E03F
:1010B000206AFAE7D4E9012115F8010B9047761E62
:1010C000F8D22046FFF764F9BDE8F0814E414E00AA
:1010D0006E616E00494E4600696E66002DE9F0476C
:1010E000814616468AB0354878440DC88DE80D0013
:1010F00032487844801C03AC0DC884E80D0041F6EA
:101100009B300844372190FBF1F290FBF1F5A5F1FB
:10111000800501FB12041B3C02D56442012000E063
:101120000020DFF898A080460027FA44AAF1BE0A02
:101130000EE0E0070AD03246684607EB470101237C
:101140000AEB810100F0D6FA8DE8070064107F1CDD
:10115000002CEED1194F7F44AE3F19E0E80715D0BF
:1011600007EB04100DF1180A90E80E008AE80E0053
:10117000C068F04201D1981908903246012306A9AF
:1011800003A800F0B7FA03AB83E807006D10641CF6
:10119000002DE3D14FF0010332466946B8F1000F4C
:1011A00003A802D000F091FA01E000F0A3FAC9E927
:1011B0000001C9F808200AB0BDE8F087C8EA0000BD
:1011C00010B50446AFF300802046BDE81040FFF79D
:1011D0006CB85FEA400C08BF91F0000F4FEA8C2317
:1011E0004FEAC12243EA51514FEA1C5018BF00F5A3
:1011F000F0404FEA300018BF41F000415FEA6C5CFC
:1012000000F02980BCF1FF3F08BF40F080407047EC
:10121000130C06BF12044FF0100C4FF0000C130E0D
:1012200004BF12020CF1080C130F04BF12010CF1E1
:10123000040C930F04BF92000CF1020CD30F04BFF7
:1012400052000CF1010C11464FF00002A0F11F00FA
:10125000A0EB0C00704711F0004F08BF704731F051
:1012600000413FF4D5AF0B0C06BF09044FF0100C42
:101270004FF0000C0B0E04BF09020CF1080C0B0F11
:1012800004BF09010CF1040C8B0F04BF89000CF1A1
:10129000020CCB0F04BF49000CF1010CCCF1200370
:1012A000A0EB0C0022FA03F302FA0CF241EA03016C
:1012B00000F10100704720F07F4C80EA030023F02A
:1012C0007F47ACEB070303F57C5300F0004003F1CC
:1012D000FF032DE980494FEA154B09B44FEA144347
:1012E00025EA0B4E24EA03480FF2042606EB1327E7
:1012F00049083E785FEA320203FB0667C7F500073C
:1013000007FB06F64FEA54374FEAD64606F10206C7
:1013100007FB066CCCF1005C4FEA1C472CEA074C3B
:1013200007FB06F40CFB06F504EB15464FEA961690
:1013300034BF00204FF000404FEAD13706FB07FCD6
:101340004FEA1C4C0CFB0BF7D21B03FB0CF761EBB9
:1013500007010CFB0EF7B0EB074072EB17420CFBDA
:1013600008F734BFA2EB0742B2EB074261EB17412B
:101370004FEA0C444FEA910706FB07FC4FEA1C4C6E
:101380000CFB0BF7B0EBC74072EB573203FB0CF7CB
:1013900034BFA2EBC742B2EBC74261EB57310CFB43
:1013A0000EF7B0EBC70072EB57720CFB08F734BFB7
:1013B000A2EBC702B2EBC70261EB5771039F4FEA82
:1013C000816141EA921104EBCC044FEAD1374FEA34
:1013D000826206FB07FC42EA90124FEA80604FEA05
:1013E0001C4C0CFB0BF7D21B03FB0CF761EB07014A
:1013F0000CFB0EF7B0EB074072EB17420CFB08F743
:1014000034BFA2EB0742B2EB074261EB17414FEA50
:101410008C554FEA910704EB9C2406FB07FC4FEA2E
:101420001C4C0CFB0BF7B0EBC74072EB573203FBC5
:101430000CF734BFA2EBC742B2EBC74261EB5731A6
:101440000CFB0EF7B0EBC70072EB57720CFB08F702
:1014500034BFA2EBC702B2EBC70261EB577115EBC9
:101460004C254FEA816141EA92114FEA82624FEACC
:10147000D13742EA901206FB07FC44F100044FEA20
:1014800080604FEA1C4C0CFB0BF7D21B03FB0CF7E4
:1014900061EB07010CFB0EF7B0EB074072EB174254
:1014A0000CFB08F734BFA2EB0742B2EB074261EB3B
:1014B000174115EB1C154FEA813141EA92414FEA81
:1014C000823242EA90424FEA80304FEA0C7644F191
:1014D000000448EA03434EEA0B484FF0000EB2EB1B
:1014E000080C71EB030724BF624639464EEB0E0E23
:1014F0004FF0000B0018524149414BEB0B0BB2EB84
:10150000080C71EB03077BF1000B24BF62463946E0
:101510004EEB0E0E4FF0000B0018524149414BEBC1
:101520000B0BB2EB080C71EB03077BF1000B24BF34
:10153000624639464EEB0E0E51EA020718BF46F0DE
:10154000010616EB0E7655F1000254F1000103D5A9
:10155000BDE88901BDE80088BDE88901BDE8004813
:10156000B619524141EB0101A3F10103704780809C
:101570007F7E7D7C7B7A79787776767574737271ED
:1015800071706F6E6E6D6C6C6B6A6A6968686766A5
:1015900066656464636362616160605F5F5E5E5D37
:1015A0005D5C5C5B5B5A5A595958585757565655AB
:1015B00055555454535352525251515050504F4F0D
:1015C0004F4E4E4D4D4D4C4C4C4B4B4B4A4A4A495D
:1015D00049494848484747474746464645454544A0
:1015E0004444444343434342424242414141002B2D
:1015F0009C4630D477002BD01CB54FEA370703B494
:101600004FF010004FF01001BAF1000F06D0BCF1FE
:10161000000FDCBF40F0080040F008014FF0000070
:101620000FBCBDE810400BF1010BBBF1010F08BF6F
:101630005FEA170722BF12F1010211F101014FF019
:10164000004143F1000300F0004043EA000070470E
:10165000F9D35708D0E746EA064613F1400F4FEAA0
:1016600016461FDD13F1200FDFBF16430A46002187
:1016700020335B42BED0C3F1200746EA064602FA99
:1016800007F74FEA164646EA0706C3F1200722FA93
:1016900003F201FA07F721FA03F14FF0000342EADF
:1016A0000702A7E746EA020646EA06464FEA16465A
:1016B00046EA0106BCBF46EA0646360C4FF0000378
:1016C0004FF000024FF0000194E72DE9804C9A465C
:1016D000934670B491E8380007C831EA400C48BF1F
:1016E00034EA430C03D5FFF7E6FDFFF780FFF0BCBB
:1016F000BDE8008C2DE9804C9A46934670B491E881
:10170000380007C810F0804F08BF13F0804F03D196
:1017100000F005F8FFF76BFFF0BCBDE8008C20F08F
:101720007F4780EA030023F07F4C07EB0C03A3F50F
:101730007C5300F00040A3F1FE0392F0000F00F094
:10174000B38095F0000F00F077802DE901494FEA52
:1017500011404FEA144621EA004800FB06FC24EA47
:10176000064708FB06F607FB08F800FB07F718EB2F
:1017700006484CEB164C4FEA124B18EB07484FEA61
:1017800015464CEB174022EA0B4E0BFB06FC25EAF4
:1017900006470EFB06F607FB0EFE0BFB07F71EEBDC
:1017A000064E4CEB164C4FF000061EEB074E4CEB72
:1017B000174B18EB0B0840F1000018EB0E0B58EB21
:1017C000000840F100008F1A4FF000013CBFC943F0
:1017D000661B14BFB5EB040C00213CBFC943F61BCC
:1017E0004FEA17444EEA8E0E27EA04454FEA1C479B
:1017F00004FB07622CEA074C05FB07F70CFB05F618
:1018000004FB0CFC16EB074642EB174216EB0C46AA
:1018100042EB1C421BEB060658EB0202414146EA32
:101820009E0601D5BDE80189B619524141EB01017F
:10183000A3F10103BDE801894FEA14454FEA1147BE
:1018400024EA054621EA074C05FB07F406FB07F7E7
:101850000CFB06F105FB0CFC11EB074144EB1744B4
:101860004FEA124711EB0C4144EB1C4422EA074CAF
:1018700005FB07F206FB07F70CFB06F605FB0CFC65
:1018800016EB074642EB174216EB0C4642EB1C45A3
:101890006A1854F1000148BF7047B619524141EB34
:1018A0000101A3F10103704795F0000F37D04FEA13
:1018B00011424FEA144721EA024624EA074C02FB90
:1018C00007F106FB07F70CFB06F402FB0CFC14EB1C
:1018D000074441EB17414FEA154714EB0C4441EB29
:1018E0001C4125EA074C02FB07F506FB07F70CFB3A
:1018F00006F602FB0CFC16EB074645EB174516EB0C
:101900000C4645EB1C42121951F1000148BF7047CB
:10191000B619524141EB0101A3F1010370474FEAAF
:1019200014454FEA114724EA054621EA074C05FB16
:1019300007F106FB07F70CFB06F24FF0000605FB6C
:101940000CFC12EB074241EB174112EB0C4251EB3E
:101950001C4148BF7047921841EB0101A3F10103FC
:10196000704700002DE9F05F2F4E8A46054600249F
:1019700071682046884796F82000DFF8B0B000066E
:1019800041D5B146B6890021C1EB01130AEB4303EF
:10199000B9F816C0002003F11E0200BF00EB80075B
:1019A00005EB071707F15008464513D2BE4211D97F
:1019B00094450FD29C450DD901EB41021044401CC7
:1019C00010F0FF040AD09BF800005E46A0420AD146
:1019D000002425E0401C80B20328DFD3491C89B2D3
:1019E0000529D1D31CE0401EC2B20023514628462F
:1019F00000F01EF8601EC2B2347001235146284622
:101A000000F016F80CE09BF800005E4640B1401E66
:101A1000C2B200235146284600F00AF80020307078
:101A20002046BDE8F09F0000240000206400002054
:101A30002DE9F843804603200F46B2FBF0F1B2FBDC
:101A4000F0F6144600FB1145102A47D8BBB1012C13
:101A500044D04FF4FC600090C6EB061007EB400149
:101A600001F11C0083B205EB850208EB021000F1C6
:101A70004E02491C401C92B289B280B218E0012C7F
:101A80002CD04FF6FF700090C6EB061007EB40001D
:101A900000F11C018BB205EB850208EB021101F18C
:101AA0004E02401C1FFA80FC491C88B292B261466B
:101AB00002F086FA50200090094805EB8503C068C3
:101AC00050F82420C6EB061007EB4000C01D81B281
:101AD00008EB031080B2102308F0D2F9BDE8F883B8
:101AE000640000202DE9FE4FDFF804A1DFF8048137
:101AF00005464FF00009AAF80090C8F80C204FF6F0
:101B0000FF7001F1960605F1F00700900C46B3B2A4
:101B1000BAB2284602F054FAB3B2BAB22146284605
:101B200002F0B2F805F1A00082B25038B3B280B230
:101B3000214602F0A9F804F13C0083B21E3881B2BC
:101B4000BAB2284602F0A0F804F1780083B21E3839
:101B500081B2BAB2284602F097F81F210026AAF8EF
:101B6000001003274FF0500B01E0012E21D0B6FBEF
:101B7000F7F0C0EB001004EB4000C01D81B2B6FBD3
:101B8000F7F007FB1060CDF800B0D8F80C2000EBA0
:101B9000800005EB001080B252F82620102308F0D8
:101BA0006FF94FF0100A761CB6B20F2EDDD3BDE8E8
:101BB000FE8FB6FBF7F0C0EB001004EB4000C01D39
:101BC00081B2B6FBF7F0D8F80CC007FB1060DCF868
:101BD00004C000EB800005EB0010CDE900CA801CBA
:101BE00080B21E235022CDF8089008F0FFF8DAE703
:101BF000140000206400002001F08ABD2DE9F041AE
:101C00000D460146002004464E1908E00702301B2D
:101C1000401E80B200F007F8641C3844E4B2AC42C5
:101C2000F4D3BDE8F08110B5044601F015FE200A9A
:101C3000A02101EB4000C0B201F0DEFD01F04EFE3C
:101C4000E0B201F0D9FD01F049FE01F005FEA1204E
:101C500001F0D2FD01F042FE002001F097FD0446A4
:101C600001F01AFE204610BD2DE9F04116460D4642
:101C70000746002409E0E00025FA00F0C1B2381957
:101C800080B200F006F8641CE4B2B442F3D3BDE8BD
:101C9000F08170B50D46044601F0DEFD200AA0215A
:101CA00001EB4000C0B201F0A7FD01F017FEE0B269
:101CB00001F0A2FD01F012FE284601F09DFD01F0A9
:101CC0000DFE01F0E9FDBDE870400A2009F062BB9D
:101CD0002DE9F84F0026A64D37464FF47A794FF696
:101CE000FF744FF0F0084FF4487A052F5ED2DFE81A
:101CF00007F0032E5EA1DE00761C0094F6B22A885F
:101D0000A0236421002002F05BF9102399A2642132
:101D10000020CDF8008008F0B3F806F002FD00289E
:101D200042D1012006F0DFFC00283DD100942A8832
:101D3000A023782102F044F9102393A278210020F7
:101D4000CDF8008008F09CF80026012728E0761CDA
:101D50000094F6B22A88A0236421002002F030F912
:101D600010238EA264210020CDF8008008F088F8AE
:101D700006F0D7FCC0B9022006F0B5FCA0B900946B
:101D80002A88A0237821002002F01AF910237EA2CD
:101D900078210020CDF8008008F072F80026022794
:101DA000504609F0F7FAA0E707F0B6FF5BE00094B1
:101DB0002A88A0236421002002F002F910237EA2C9
:101DC00064210020CDF8008008F05AF806F03CFDB0
:101DD00000942A8807004FF0A00317D06421002048
:101DE00002F0EEF810237BA264210020CDF80080E1
:101DF00008F046F8384607F08FFF00263746484679
:101E000009F0C8FA504609F0C5FA75E778210020B4
:101E100002F0D6F8102377A278210020CDF80080B8
:101E200008F02EF8484609F0B5FA504609F0B2FA23
:101E3000052E1DD000942A88A0236421002002F0E2
:101E4000BFF84746102372A264210020CDF800801D
:101E500008F016F806F084FD98B1002707F05CFF43
:101E6000484609F097FA504609F094FA052E9AD19F
:101E700000942A88A0236421002002F0A1F8BDE884
:101E8000F88F00942A88A0237821002002F098F887
:101E9000102367A278210020009707F0F1FF484641
:101EA00009F078FA504609F075FA052EE0D0009452
:101EB0002A88A0236421002002F082F847461023DC
:101EC00063A264210020CDF8008007F0D9FF102321
:101ED00067A278210020009707F0D2FF4FF4967791
:101EE00000F0F4FE0146B842FAD2022006F0BAFD34
:101EF00008B1002758E700942A88A0236421002015
:101F000002F05EF8454610235DA278210020CDF84E
:101F1000008007F0B5FF614806F0CEFD102000906C
:101F20005E495F48891F03230088C988421A5021EF
:101F3000084606F0E5F840F2DC5009F02BFAA02341
:101F4000F02264210020009402F03AF8102355A2F8
:101F500078210020009507F093FF00F0B7FEC0B293
:101F600005288CD109F0B8FCBDE8F84F09F096BC03
:101F7000E4030020506C65617320746F7563682002
:101F800066696E676572210046696E676572707278
:101F9000696E7420636F727265637400506C656162
:101FA0007320746F7563682066696E67657220615F
:101FB0006761696E21000000436F6D70617265207A
:101FC00074776963652066696E6765727072696EA1
:101FD00074000000436F6D70617265206661696C0A
:101FE0002C706C65617320746F7563682061676124
:101FF000696E210054776963652066696E67657252
:102000007072696E74206172652073616D65000085
:1020100047656E65726174652066696E676572708A
:1020200072696E742074656D706C61746500000077
:1020300047656E65726174652066696E676572706A
:1020400072696E74207375636365737300000000BA
:10205000496E7470757420494420616E6420736108
:102060007665207769746820454E544552210000FA
:10207000303D3C204944203C3D32393900000000CD
:102080004164642066696E6765727072696E74205F
:102090007375636365737321212100006A0000205A
:1020A00024070020322EB7B5BBD8D6F7BDE7C3E66C
:1020B000000000002DE9FC470D468046F024102367
:1020C0005CA278210020009407F0DAFE29885EA047
:1020D000FEF726F941F27077384609F05BF9384689
:1020E00009F058F9384609F055F9DFF864914FF6D0
:1020F000FF760096B9F800208C237821002001F0AB
:102100005FFF00F0E3FD298881427BD15FF010077B
:1021100009F06AFBB0B14FA0CDE900701023F022A6
:1021200032213C2006F027F8C82009F033F9422379
:10213000F02232213C20009601F042FFC82009F035
:1021400029F9E5E7304601F05DFC0026444F1023F5
:1021500044A23E8031463046009407F091FE1023A1
:1021600048A214210020009407F08AFE3E8010232C
:1021700049A228210020009407F082FE10234BA2E0
:102180003C210020009407F07BFE10234CA250213C
:102190000020009407F074FE10234EA2642100205A
:1021A000009407F06DFE404609F0F0FE4E4AAA2169
:1021B0000020FFF797FC4C4CB4F1100400F086FDB2
:1021C00001280AD002280ED0032812D0042813D0E8
:1021D0000528F3D109F0B0FCF0E729464046A26893
:1021E00000F0AEFDEAE709F077FB09F057FBE5E701
:1021F00008E0A06808F0D8FC29464046A26808F02C
:10220000EBFEDBE7102339A278210020009407F0D1
:1022100037FE384609F0BEF8384609F0BBF800969C
:10222000B9F800208C237821002001F0C9FEBDE818
:10223000FC870000C7EBCAE4C8EBB9DCC0EDD4B141
:10224000C3DCC2EBA3A10000623A256400000000D9
:10225000E4030020466F6E74204572726F72210095
:1022600014000020D2D1D3D0B9DCC0EDD4B1C8A8BD
:10227000CFDEA3ACC7EBBDF7C9F7D0DEB8C4A3A1CE
:1022800000000000312EB9DCC0EDBFAACBF8C3DCE2
:10229000C2EB2E2E2E000000322EB9DCC0EDD6B8D7
:1022A000CEC62E2E2E2E2E2E00000000332EB9DC90
:1022B000C0ED4944BFA82E2E2E2E2E2E0000000069
:1022C000342ED0DEB8C4B9DCC0EDD4B1C3DCC2EB6F
:1022D00000000000352ECDCBB3F6B9DCC0EDD4B193
:1022E000C8A8CFDE0000000074000020B9DCC0EDFB
:1022F000D4B1C3DCC2EBCAE4C8EBB4EDCEF3A3A106
:1023000000000000FEE7000070B50D4C0025C4F889
:1023100080510C48016821F470410160016841F46A
:1023200040510160C4F88C510A2004F5C07409F0D2
:102330004BF8012020600A2009F046F8256070BDA6
:1023400000002242001001400C48816941F0100158
:1023500081610B4801684FF20F02914301600168EF
:1023600043F2030211430160C16841F00201C16000
:10237000C16841F00801C1607047000000100240D0
:102380000010014070B50D4C0025C4F880510C4878
:10239000016821F470410160016841F4405101601D
:1023A0000126C4F88C610A2004F5C07409F00CF809
:1023B00026600A2009F008F8256070BD000022425E
:1023C000001001402DE9F0478146164800240168BD
:1023D00021F470410160016841F400410160124E36
:1023E000254627464FF00108C6F880711E2008F0E8
:1023F000EBFFC6F880816006040ED6F80C0108B128
:10240000641CE4B26D1CEDB2082DEDD3B9F1000FE0
:1024100004D0FFF779FF2046BDE8F087FFF7B2FF51
:10242000F9E7000000100140000022422DE9F041D0
:1024300006461248016821F470410160016841F4C8
:10244000405101600E4C0027C4F880713D464FF0AA
:102450000108F009C4F88C017006060EC4F88081EA
:102460000A2008F0B1FFC4F880710A2008F0ACFF20
:102470006D1CEDB2082DECD3BDE8F08100100140D9
:102480000000224270B50D48016821F470410160DE
:10249000016841F440510160094C0120C4F88C01ED
:1024A000C4F880010A2004F5C07408F08DFF0025EF
:1024B000E5600A2008F088FF256070BD001001402B
:1024C0000000224270B50D48016821F4704101609E
:1024D000016841F440510160094C0020C4F88001BA
:1024E000C4F88C010A2004F5C07408F06DFF0125C2
:1024F00025600A2008F068FFE56070BD001001400B
:102500000000224270B513480024016821F4704194
:102510000160016841F4004101600F4D0126C5F8DA
:102520008C61304608F050FFC5F88061012008F04A
:102530004BFF07E0641CE4B2FA2C03D9FFF7C2FF9B
:10254000012070BDD5F80C010028F3D1C5F8800139
:1025500070BD0000001001400000224238B5154C4B
:1025600000201023A060F020009013A2782100200A
:1025700007F086FC41F27075284608F00BFF2846EC
:1025800008F008FF284608F005FF4FF6FF7000909E
:102590000D488C2378210288002001F011FD4FF4B2
:1025A000967008F0F7FEA168BDE8384007A0FDF777
:1025B000B7BE0000640000204944BFA8D6D8D6C3E7
:1025C000B3C9B9A6A3A10000E4030020435A703E9A
:1025D0003E3E25730D0A00002DE9F0410E460746E8
:1025E00015460421052000F02AF80021012008F0FA
:1025F000DBFC80210A2007F02FFB002405E0395D79
:10260000092008F0D1FC641CE4B2B442F7D30321E2
:10261000012008F0C9FCFF24052006F0F5FD641E2A
:1026200014F0FF0401D04007F6D5222006F0ECFD9F
:102630002870212006F0E8FD6870BDE8F08170B5D3
:102640000C46054606F0E0FD20EA04012846BDE8F8
:10265000704008F0A9BC7047F8B53F4E4FF6FF75C3
:1026600000953288A0236421002001F0A9FCF02409
:1026700010233AA264210020009407F001FC1023EB
:102680003BA278210020009407F0FAFB10233FA220
:102690008C210020009407F0F3FB322008F07AFE32
:1026A0003E4AAA210020FFF71DFA00F00FFBA842C6
:1026B0001DD0B0F57F4F3BD0012105F0CBFFD0B34B
:1026C00007F02AFB40F2DC5008F064FE334846383D
:1026D00006F0F2F910200090304931484C390323BC
:1026E0000088C988421A5021084605F009FD009566
:1026F0003288A0236421002001F062FC322008F01F
:1027000049FE264AAA213C3A0020FFF7EBF91023A4
:1027100024A278210020009407F0B2FB00F0D6FA42
:10272000052818D109F0D8F8BDE8F84009F0B6B886
:1027300005F0BFFFC3E7FFE700953288A0237821AB
:10274000002001F03DFC10231AA28C2100200094EF
:1027500007F096FBB6E7F8BDE403002044656C651E
:1027600074652066696E6765727072696E740000C8
:10277000496E70757420494420616E6420746F75D1
:10278000636820456E74657221000000303D3C2076
:102790004944203C3D32393900000000B00000209F
:1027A00024070020322EB7B5BBD8D6F7BDE7C3E665
:1027B00000000000D6B8CEC6C9BEB3FDB3C9B9A6E5
:1027C0002121210021283CD2DFE800F01113151748
:1027D000191B1D1F212325273B3B3B3B27293B3B47
:1027E0003B2B3B3B2D2F3133353B3B37390016A07C
:1027F000704716A0704719A070471DA0704721A010
:10280000704728A070472FA0704735A0704742A09E
:10281000704744A0704747A070474AA070474DA03A
:10282000704750A0704758A070475BA070475DA0EC
:10283000704760A0704764A0704768A070476AA0A6
:1028400070476CA0704700004F4B0000CAFDBEDD12
:10285000B0FCBDD3CAD5B4EDCEF30000B4ABB8D054
:10286000C6F7C9CFC3BBD3D0CAD6D6B800000000C4
:10287000C2BCC8EBD6B8CEC6CDBCCFF1CAA7B0DCBF
:1028800000000000D6B8CEC6CDBCCFF1CCABB8C9E5
:10289000A1A2CCABB5ADB6F8C9FAB2BBB3C9CCD81E
:1028A000D5F70000D6B8CEC6CDBCCFF1CCABCAAA06
:1028B000A1A2CCABBAFDB6F8C9FAB2BBB3C9CCD8A9
:1028C000D5F70000D6B8CEC6CDBCCFF1CCABC2D2C6
:1028D000B6F8C9FAB2BBB3C9CCD8D5F7000000002E
:1028E000D6B8CEC6CDBCCFF1D5FDB3A3A3ACB5ABA6
:1028F000CCD8D5F7B5E3CCABC9D9A3A8BBF2C3E616
:10290000BBFDCCABD0A1A3A9B6F8C9FAB2BBB3C981
:10291000CCD8D5F700000000D6B8CEC6B2BBC6A54D
:10292000C5E40000C3BBCBD1CBF7B5BDD6B8CEC68E
:1029300000000000CCD8D5F7BACFB2A2CAA7B0DC4D
:1029400000000000C9BEB3FDC4A3B0E5CAA7B0DC57
:1029500000000000C7E5BFD5D6B8CEC6BFE2CAA703
:10296000B0DC0000BBBAB3E5C7F8C4DAC3BBD3D050
:10297000D3D0D0A7D4ADCABCCDBCB6F8C9FAB2BBCF
:10298000B3C9CDBCCFF10000B6C1D0B420464C4194
:10299000534820B3F6B4ED00CEB4B6A8D2E5B4EDFA
:1029A000CEF30000CEDED0A7BCC4B4E6C6F7BAC5ED
:1029B00000000000BCC4B4E6C6F7C9E8B6A8C4DA93
:1029C000C8DDB4EDCEF30000BCC7CAC2B1BED2B3FD
:1029D000C2EBD6B8B6A8B4EDCEF30000D6B8CEC6DA
:1029E000BFE2C2FA00000000B5D8D6B7B4EDCEF30E
:1029F00000000000C4A3BFE9B7B5BBD8C8B7C8CFB3
:102A0000C2EBD3D0CEF300007CB50121102006F03C
:102A10009BFB4FF40054ADF8044010208DF80700E4
:102A200003202D4D8DF8060001A9284600F048FA34
:102A30002146284600F0CBFA0220ADF804004820D9
:102A40008DF8070001A9284600F03AFA022128462D
:102A500000F0BDFAFFF778FC204D0024C5F8B44122
:102A6000142005F5DA7508F095FC01202860322065
:102A700008F090FC8DF8004001226946002000F02B
:102A800001F901226946A42000F0FCF816208DF817
:102A9000000001226946802000F0F4F80C208DF837
:102AA000000001226946882000F0ECF80222694605
:102AB000A12000F01BF89DF80000302803D19DF8FC
:102AC0000100032801D001207CBD43F2030104A0D2
:102AD000FDF726FC00207CBD0010014000002242D2
:102AE0004354502049443A25780D0A002DE9F0411D
:102AF00015460E460446FFF7C5FC7020FFF796FC0E
:102B0000FFF700FDE0B2FFF791FCFFF7FBFCFFF7DA
:102B1000B9FC7120FFF78AFCFFF7F4FC00246F1E5C
:102B200009E0BC4201D0012000E00020FFF74AFC90
:102B30003055641CE4B2AC42F3D3BDE8F041FFF77A
:102B4000C1BC00002DE9F1474B4E00244FF00A0AAA
:102B5000307881B0401CC0B2B0FBFAF20AFB12011F
:102B6000DFF818812746307009B10A2867D20122A0
:102B700001A90220FFF7BAFF9DF8040001075ED00B
:102B800000F00F0106295AD2FF208840C04340F0D0
:102B9000C000454688F8200001274FF0000900BF1B
:102BA00095F8200007FA04F108423BD0344804228B
:102BB000694630F81400FFF799FF95F830009DF84A
:102BC0000010C0079DF8010001F00F010ED000EBCE
:102BD000012105EB4400C1829DF802209DF80310FD
:102BE00002F00F0201EB022181810FE000EB0120D6
:102BF000C0F5F07105EB440081819DF802209DF83D
:102C0000031002F00F0201EB0221C1829DF80000C7
:102C10000821B1EB101F05D005EB4400A0F8169079
:102C2000A0F80C90641CE4B2052CB9D3A889012744
:102C300018B9E88A08B98DF8049086F800909DF8D4
:102C40000400C00610D198F82000010602D520F03B
:102C5000800007E04FF6FF71A8F80C10A8F81610D6
:102C600000F0E00088F820003078F02801D986F8DC
:102C700000A03846BDE8FC87590000202400002051
:102C800028FA00082DE9F04116460F4604460025B3
:102C9000FFF7F8FB7020FFF7C9FBFFF733FCE0B24A
:102CA000FFF7C4FBFFF72EFC002408E0385DFFF7B8
:102CB000BDFBFFF727FC050003D1641CE4B2B4425E
:102CC000F4D3FFF7FFFB2846BDE8F08138B50024B8
:102CD0004FF6FF75AA210020FEF744FE20B301281D
:102CE00013D0032813D0011F092907D2632C05D262
:102CF00004EB840100EB4101C91E8CB20D2809D000
:102D00000E280BD00F2818D00EE0284638BD4FF4FF
:102D10007F4038BD0A20B4FBF0F405E0632C03D2F9
:102D200004EB840005EA40041020009006232246AC
:102D3000B1215F2005F0E4F9CCE7204638BD000062
:102D40002DE9F74F82B08346F027102342A2782165
:102D50000020009707F094F8FFF7B8FF804641F293
:102D60007074204608F016FB204608F013FB20463E
:102D700008F010FB3D4E4FF6FF75009532888C230E
:102D80007821002001F01CF9DFF8E4A0B8F1000080
:102D900057D08146102337A278210020009707F0F2
:102DA0006FF8FFF793FF8046204608F0F3FA2046BD
:102DB00008F0F0FA204608F0EDFA009532888C23EE
:102DC0007821002001F0FCF8C8451DD1ABF8008047
:102DD00010232CA278210020009707F051F82046FC
:102DE00008F0D8FA204608F0D5FA204608F0D2FAC2
:102DF000009532888C237821002001F0E1F805B09D
:102E0000BDE8F04F08F098BE102323A278210020DF
:102E1000009707F035F8204608F0BCFA204608F085
:102E2000B9FA009532888C237821002001F0C8F887
:102E3000DAF80820039905B05846BDE8F04FFFF7CF
:102E400039B9102319A278210020009707F018F84B
:102E5000204608F09FFADEE7C7EBCAE4C8EBD0C211
:102E6000BFAACBF8C3DCC2EBA3A10000E40300209F
:102E700064000020C7EBD4D9CAE4D2BBB4CEA3A16E
:102E800000000000BFAACBF8C3DCC2EBD0DEB8C4A0
:102E9000B3C9B9A6A3A10000C1BDB4CEC3DCC2EBC7
:102EA000B2BBD2BBD6C2A3A100000000D0C2C3DC1B
:102EB000C2EBB2BBBFC9CEAA303030A3A100000024
:102EC000F0B5CA78002502F00F03D20601D58A7842
:102ED00013430A784FF00F0E12F0FF0F4FF001026C
:102EE0001CD004680F8802FA05F63740B74211D1AA
:102EF0004FEA850C0EFA0CF724EA070703FA0CF4E4
:102F00003C43CF78282F02D0482F02D002E0466100
:102F100000E006616D1C082DE4D304600C88FF2CD2
:102F20001ED944685FF0000606F1080702FA07F5AB
:102F30000F882F40AF420FD14FEA860C0EFA0CF7E4
:102F4000BC4303FA0CF73C43CF78282F00D14561EE
:102F5000CF78482F00D10561761C082EE4D3446059
:102F6000F0BD0000F0B5144C002801DAE36900E080
:102F70006368420D120185B2C0F301579540C0F35A
:102F80000346032F05D0C2020AD50322B240934361
:102F900007E023F07062636823F07063636002E00F
:102FA000AB4343F0706201B12A43002801DAE261C9
:102FB000F0BD6260F0BD000000000140024600204C
:102FC00092680A4200D00120704741617047016158
:102FD00070470000FEB50121102006F0B5F842F25E
:102FE0000200ADF8080010208DF80B000320334ECE
:102FF0008DF80A0002A93046FFF762FF0221304631
:10300000FFF7E5FF71143046FFF7E1FFFFF79CF98A
:103010002B4D0024C5F8B4410A2005F5DA7508F0F7
:10302000B9F9012028600A2008F0B4F90225ADF8AA
:10303000085028208DF80B0002A93046FFF740FF0A
:1030400002213046FFF7C1FF642008F0A3F90422F3
:10305000694648F2401000F049F88DF8044069468E
:1030600018A0FDF75DF91AA16846FDF747FB08B106
:103070000120FEBD8DF8005048F24005012269464E
:10308000284600F02BF901226946E81D00F02EF8D1
:103090009DF80010602905D20FA0FDF741F901202D
:1030A00000F0F4F80A2008F075F98DF800400122CC
:1030B0006946284600F012F90020FEBD00100140CC
:1030C000000022424354502049443A25730D0A001F
:1030D000393134370000000044656661756C742036
:1030E0005665723A25640D0A000000002DE9F04192
:1030F00015460E460446FFF7C5F92820FFF796F956
:10310000FFF700FA200AFFF791F9FFF7FBF9E0B2A9
:10311000FFF78CF9FFF7F6F9FFF7B4F92920FFF76D
:1031200085F9FFF7EFF900246F1E09E0BC4201D0DA
:10313000012000E00020FFF745F93055641CE4B29F
:10314000AC42F3D3BDE8F041FFF7BCB92DE9F14F34
:103150004B4E00244FF00A0A307882B0401CC0B2B7
:10316000B0FBFAF20AFB1201DFF81881A1463070B9
:1031700009B10A2864D248F24E1B012202A958461E
:10318000FFF7B4FF9DF808004FF00007010748D093
:1031900000F00F01062944D2FF2088408DF804007A
:1031A000C04340F0C000454688F820004FF00109B8
:1031B00095F8201009FA04F0014225D03248042283
:1031C000694630F81400FFF791FF95F830009DF83C
:1031D0000110C0079DF8000000EB012105EB440041
:1031E0000AD0C1829DF802109DF8032001EB022154
:1031F000C1F54871818107E081819DF802109DF839
:10320000032001EB0221C182641CE4B2052CCFD360
:10321000A8894FF0010918B9E88A08B98DF8087033
:1032200037709DF8080001060AD500F00F00062847
:1032300006D28DF80470012201A9584600F04EF81C
:103240009DF8080000F08F00802810D198F8200029
:10325000010602D520F0800007E04FF6FF71A8F8C4
:103260000C10A8F8161000F0E00088F82000307864
:10327000F02801D986F800A04846BDE8FE8F00007E
:103280005A00002024000020EAFA000808B50021B6
:103290008DF800108DF801000F4800BF435C9DF8C9
:1032A0000020491C1A44C9B28DF80020B829F5D372
:1032B000D0B2C043401C8DF80000B822064948F245
:1032C000470000F00BF80222694648F2FF0000F0C8
:1032D00005F8002008BD000032FA00082DE9F04191
:1032E00016460F4604460025FFF7CCF82820FFF7C6
:1032F0009DF8FFF707F9200AFFF798F8FFF702F9A2
:10330000E0B2FFF793F8FFF7FDF8002408E0385D1E
:10331000FFF78CF8FFF7F6F8050003D1641CE4B260
:10332000B442F4D3FFF7CEF82846BDE8F0810000A0
:1033300030B40C460146500700D0012000EBD2000B
:103340005043C5B208784B78812809D3402B07D366
:10335000FF2B05D0FF2803D07F2B0DD2403B0CE084
:103360000020014604E000BF401C04F8011BC0B26D
:10337000A842F9D330BC7047413B8138D9B2C0B2C2
:10338000C0EB401303EB801001EB400068430C4995
:103390000C2A0BD0102A0ED0182AEBD1D1F8191014
:1033A00048220144204630BC06F062BAD1F8091028
:1033B00018220144F6E7D1F8111020220144F1E768
:1033C00078A100202DE9F84F01260A253146042076
:1033D00005F0BAFEF003ADF8000048208DF80300B8
:1033E0002F4F03248DF8024069463846FFF768FDE9
:1033F0001020ADF800008DF803008DF802406946FA
:103400003846FFF75DFD10213846FFF7E0FD01214A
:103410002448FFF7A7FD244C0127C4F89071C4F895
:103420003C714FF4165009F01DF8A146BA464FF012
:1034300000081E4CDFF878B026E04F46C9F890A18E
:103440000A2007F0A7FF1BA008F030FFC7F8908103
:1034500000272088000406D4052007F09BFF7F1C6E
:10346000FFB20A2FF5D3208800040DD52088A4F8D8
:103470000080C6B2042E07D19BF800104F2903D15B
:103480009BF801004B2804D06D1EEDB2D5D215B1CA
:1034900002E00026FBE701263046BDE8F88F000079
:1034A0000008014000023000000021421401002009
:1034B0004007002041540D0A00000000FEE7000014
:1034C0002DE9F047654888B001AC82680020115CA6
:1034D000090904F81010092901D9373100E0303109
:1034E00004F81010115C04EB400301F00F01597057
:1034F000092901D9373100E03031401CC0B2597080
:103500000428E4D34FF000098DF80C9008F0AAF9D4
:10351000F026DFF84C8141F270754FF6FF770128F5
:103520001CD0022817D14FA0FCF7FAFE102351A29D
:1035300078210020009606F0A3FC284607F02AFF19
:10354000284607F027FF0097B8F800208C23782141
:10355000002000F035FD08B0BDE8F08705F0DEFC86
:103560000346002104A85A5C120900F81120092A18
:1035700001D9373200E0303200F811205A5C00EBFC
:10358000410C02F00F028CF80120092A01D93732D0
:1035900000E03032491CC9B28CF801200429E2D382
:1035A0008DF81890002140F6B83A425C635C9A426C
:1035B0003AD1491CC9B20829F7D332A0FCF7B0FEB2
:1035C000102332A278210020009606F059FC2846EC
:1035D00007F0E0FE284607F0DDFE0097B8F800206F
:1035E0008C237821002000F0EBFC2D4CC4F888914E
:1035F0004CF25035284604F5C47407F0CBFE28463B
:1036000007F0C8FE284607F0C5FE2068C0432060CA
:10361000504607F0BFFE01A922A0FCF781FE04A9D5
:1036200023A0FCF77DFE96E724A0FCF779FE10238B
:1036300024A278210020009606F022FC284607F0FC
:10364000A9FE284607F0A6FE0097B8F800208C23B4
:103650007821002000F0B4FCDAE7000064000020CC
:10366000E403002020C7EBB7C5C8EB4944BFA80D51
:103670000A000000C7EBB7C5C8EB4944BFA8A3A127
:103680000000000053430D0A00000000D1E9D6A459
:10369000B3C9B9A6A3ACD2D1BFAACBF8A3A10000ED
:1036A000008022424944313E3E3E25730D0A00000F
:1036B0004944323E3E3E25730D0A000041430D0A47
:1036C00000000000D1E9D6A4CAA7B0DCA3A1000085
:1036D00070B50D4C0025C4F8B0510C48416821F478
:1036E00070414160416841F440514160C4F8AC51BF
:1036F000022004F5D67407F067FE01206060022006
:1037000007F062FE656070BD0000224200100140BB
:1037100008B50121102005F017FD4FF4C050ADF899
:10372000000010208DF8030003208DF80200694688
:103730000448FFF7C5FB04480121C0F8B011C0F8E8
:10374000AC1108BD001001400000224270B50D4CC4
:103750000025C4F8B0510C48416821F47041416023
:10376000416841F4405141600126C4F8AC61022037
:1037700004F5D67407F028FE6660022007F024FEE8
:10378000656070BD00002242001001402DE9F04745
:10379000814617480024416821F470414160416826
:1037A00041F400414160134E254627464FF0010881
:1037B000C6F8B071022007F007FEC6F8B0816006B7
:1037C000040ED6F82C0108B1641CE4B2012007F005
:1037D000FBFD6D1CEDB2082DEAD3B9F1000F04D04A
:1037E000FFF776FF2046BDE8F087FFF7AFFFF9E768
:1037F00000100140000022422DE9F0410646144825
:10380000416821F470414160416841F44051416098
:10381000104C0027C4F8B0713D464FF00108F00984
:10382000C4F8AC017006060E022007F0CDFDC4F806
:10383000B081022007F0C8FDC4F8B071022007F083
:10384000C3FD6D1CEDB2082DE9D3BDE8F081000089
:10385000001001400000224270B50D48416821F47B
:1038600070414160416841F440514160094C012080
:10387000C4F8AC01C4F8B001042004F5D67407F014
:10388000A3FD00252560042007F09EFD656070BD46
:1038900000100140000022420E4810B5416821F49A
:1038A00070414160416841F4405141600A4C002040
:1038B000C4F8B001C4F8AC01042004F5D67407F0D4
:1038C00083FD012060602060BDE81040042007F007
:1038D0007BBD0000001001400000224270B513487B
:1038E0000024416821F470414160416841F4004185
:1038F00041600F4D0126C5F8AC61304607F064FD0C
:10390000C5F8B061012007F05FFD07E0641CE4B278
:10391000FA2C03D9FFF7C0FF012070BDD5F82C01A8
:103920000028F3D1C5F8B00170BD000000100140BF
:10393000000022427CB50546EF208DF800000120F2
:103940008DF801001448154C0168080E8DF802002E
:10395000080C8DF80300080A8DF8040007208DF884
:1039600005108DF8060000268DF8076026800CE013
:10397000012007F00FFD2088000406D52680694647
:103980000748FCF789FE002804D16D1E2D042D0C7C
:10399000EED100207CBD0000600000205C00002013
:1039A0000404002038B50121102005F0CDFB0121D1
:1039B0001148FFF7D7FA4FF40040ADF800000F4D63
:1039C00048248DF8034069462846FFF779FA2020FD
:1039D000ADF800008DF8034069460948FFF770FA1A
:1039E0000120ADF8000028208DF803006946284624
:1039F000FFF766FA38BD0000000230000008014001
:103A0000001001402DE9F0431B4C81460025208821
:103A100066884643A088A0F5D041043902D1A07938
:103A200001280CD00021084604F05AF904F0F2FBFA
:103A300012484FF480734115114C802218E0002089
:103A4000A0712A2767814FF02B08A4F80C8001464B
:103A500004F046F90120A071A4F80A80A781E5E7E7
:103A600003614161C4F800904261026101616D1C13
:103A7000B542F5D3BDE8F083E40300200010014017
:103A80000C0C01402DE9F04F4A492A242B25898846
:103A900045F2105A4FF4305B4FF4285E4FF44876ED
:103AA0004FF0F00C49F241394FF4A07345F2103752
:103AB0004FF4F07280B13F484FF00108494580F85B
:103AC00006800380A0F802C001D0B9423ED12C2666
:103AD00006814481858157E036484FF0000849450A
:103AE00080F80680A0F800C0438006D0A1F5D04C35
:103AF000BCF1040C01D0B9420CD12C2606814481C2
:103B0000A1F5D0448581043C01D0B94244D1038061
:103B1000428041E0514507D1A0F808B0A0F80AE082
:103B20004FF42C5181810EE0A1F5C853633B06D0C0
:103B30002221018120214181212181812CE02C2120
:103B40000181458184810280468025E0A1F5D04C29
:103B5000BCF1040C09D051450BD1A0F808B0A0F875
:103B60000AE04FF42C54848121E02C260681458103
:103B700009E0A1F5C85CBCF1630C12D022240481D9
:103B80002124448120248481A1F5D044043C01D027
:103B9000B94201D102804380BDE8F04F002003F01C
:103BA000F7BE4FF02C0CA0F808C044818581068038
:103BB0004280E9E7E40300202DE9FE4F161ACDE923
:103BC00000104FF000085D1A47464FF0FF30002EFE
:103BD00002DD4FF0010102E003D14FF000018B46FE
:103BE00002E08346C6F10006002D02DD4FF0010021
:103BF00002E003D14FF00000824602E08246C5F1A8
:103C00000005AE4201DD344600E02C46601C4FF05A
:103C10000009029018E0009881B2019880B200F08B
:103C200019F8B0442F44A04504DD0198A8EB04081E
:103C300058440190A74203DD00983F1B5044009078
:103C400009F101001FFA80F902998945E3DDBDE819
:103C5000FE8F000000B504F043F804F0DBFA0748DB
:103C60004FF48071016141154161054A054B12888D
:103C70001A60802242610261016100BD00100140B2
:103C8000140000200C0C0140F0B51C4615460E46F1
:103C900007460B46FFF790FF3A462346314610464B
:103CA000FFF78AFF23462A4619463846FFF784FF66
:103CB0002A4623463146BDE8F0401046FFF77CBF58
:103CC0002DE9FC4F80460025144603200F46A0EB4B
:103CD000440649E0381B81B208EB050A01901FFA3F
:103CE0008AF0FFF7B7FF781B81B208EB0409009058
:103CF0001FFA89F0FFF7AEFF07EB050B1FFA8BF1F8
:103D00001FFA89F0FFF7A6FF07EB04091FFA89F1F4
:103D10001FFA8AF0FFF79EFFA8EB050A1FFA89F148
:103D20001FFA8AF0FFF796FFA8EB04091FFA8BF140
:103D30001FFA89F0FFF78EFF019881B21FFA8AF00F
:103D4000FFF788FF009881B21FFA89F0FFF782FF22
:103D50006D1C002E03DA06EB8506B61D04E0281B59
:103D600006EB8006641E0A36A542B3DDBDE8FC8F73
:103D70002DE9F74F07468F4881B0DFF83CA28188D4
:103D800002983E0A00F0FF094FEA1028F8B20090AE
:103D90008848A1F513434FF4807B42894FF40074A7
:103DA000413B18D00546A1F5A640103813D0A1F527
:103DB000AA40103833D02846A1F5C8568379008828
:103DC000C01B401E633E5ED0A1F5D046043E7CD0B1
:103DD000012B7BD0CEE0104604F00AFA774DC5F8EF
:103DE00010B06C615746CAF8006080266E612E6183
:103DF0002C61C5F810B06C610098CAF800006E61C3
:103E00002E612C616B48808904F0F2F9C5F810B07E
:103E10006C61C7F800806E612E612C612DE0104648
:103E200004F0E6F9654DC5F810B06C615746CAF864
:103E3000006080266E612E612C615E484089401CC6
:103E400080B204F0D5F9C5F810B06C610098386004
:103E50006E612E612C615748808904F0C9F9C5F85C
:103E600010B06C61C7F800806E612E612C61514802
:103E70008089401C80B204F0BBF9C5F810B06C61B9
:103E8000C7F8009071E003B987B2104604F0B0F9AA
:103E90004A4DC5F810B06C61380ACAF80000802697
:103EA0006E612E612C61C5F810B06C61F9B2CAF870
:103EB00000106E612E612C61C5F810B06C61CAF8FB
:103EC00000006E612E612C6101E022E051E0C5F836
:103ED00010B06C61CAF800106E612E612C6135481B
:103EE000808904F085F9C5F810B06C615146CAF8B4
:103EF00000806E612E612C61C5F810B06C61CAF84B
:103F000000906E612E612C61C5F810B06C61404666
:103F100022E0012B00D187B2104604F069F9274D49
:103F2000C5F810B06C61390ACAF8001080266E61BD
:103F30002E612C61C5F810B06C61F9B2CAF800109E
:103F40006E612E612C611B48808904F051F9C5F81F
:103F500010B06C614046514608606E612E612C6164
:103F6000C5F810B06C61C1F800906E612E612C61D3
:103F700008E087B23946104604F052F9A889029940
:103F800004F04EF90D48C0F814B04461094909899C
:103F9000CAF800108021416101610461C0F810B0CD
:103FA0004461039ACAF80020416101610461BDE8DF
:103FB000FF8F0000E40300200C0C014000100140C2
:103FC0002DE9F84F274E1D468146B3880A9FA3F579
:103FD000D040043802D1B07901280BD0A2EB0900FF
:103FE000401C86B20C464FF48078DFF87CA04FF47A
:103FF000007B33E034880846A11AA4EB09030024AF
:10400000B4712A462A2474812B25491E5B1EB58172
:1040100089B29BB20097FFF7D3FF0120B071758181
:10402000B481BDE8F88F2146484603F059FE04F0FC
:10403000F1F8002150465A46DFF830C0802309E0ED
:10404000C0F810804261CCF80070436103610261E6
:10405000491C89B2B142F3D3641CA4B2AC42E2D988
:10406000DFE70000E4030020001001400C0C0140D9
:104070002DE9F84F0121192005F066F80121FE48CD
:10408000FEF770FF4FF4F864ADF8004010208DF893
:104090000300DFF8E88303208DF8020069464546F7
:1040A0004046FEF70DFF21462846FEF790FFF44DEF
:1040B0004FF6FF74ADF8004069462846FEF700FF52
:1040C00021462846FEF783FF322007F063F90121DD
:1040D000002004F0A5F8322007F05CF9002003F07E
:1040E00001FCE84C49F2413746F60409A08045F24C
:1040F000103A45F21056FF2806D3A0F57F41FF394C
:1041000002D0B0F5134F70D1D32004F071F803F052
:10411000B1FB03F0AFFB03F0ADFB4FF6FF7505EA13
:104120000020A08003F0A6FBA1880843A080B8422D
:104130005BD0BF2004F05CF803F09CFB03F09AFB1B
:1041400003F098FB03F096FB05EA0020A08003F043
:1041500091FBA1880843A080484546D0D42004F0B4
:1041600047F803F087FB03F085FB03F083FB05EAC8
:104170000020A08003F07EFBA1880843A08050456A
:1041800033D04FF45A4004F033F803F073FB4FF48C
:104190005B4004F02DF803F06DFB05EA0020A080E1
:1041A0004FF45C4004F024F803F064FBA18808435A
:1041B000A080B0F5004F7DD0B04216D0A12004F011
:1041C00017F803F057FBA08003F054FB05EA00202A
:1041D000A08003F04FFBA1880843A0F5AE41A0806A
:1041E000613902D141F66310A080A188A6A0FCF736
:1041F00097F8A088B8427DD1CF2003F0F9FF0020C6
:1042000003F0E4FFC12003F0E1FF302003F0DEFF04
:10421000ED2003F0EDFF642003F0D8FF032003F04E
:10422000D5FF122003F0D2FF812003F0CFFFE8205A
:1042300003F0DEFF852003F0C9FF102003F0C6FF66
:104240007A2003F0C3FFCB2003F0D2FF392003F024
:10425000BDFF2C2003F0BAFF002003F0B7FF34208D
:1042600003F0B4FF022003F0B1FFF72003F0C0FF1A
:10427000202003F0ABFFEA2003F0BAFF002003F098
:10428000A5FF002003F0A2FFC02003F0B1FF1B2018
:1042900003F09CFFC12003F0ABFF012003F096FF69
:1042A000C52003F0A5FF302003F090FF302003F07D
:1042B0008DFF00E0B3E0C72003F09AFFB72003F0C2
:1042C00085FF362003F094FF482003F07FFF3A205B
:1042D00003F08EFF552003F079FFB12003F088FF33
:1042E000002003F073FF1A2003F070FFB62003F0E4
:1042F0007FFF00E095E00A2003F068FFA22003F0B2
:1043000065FFF22003F074FF002003F05FFF26201A
:1043100003F06EFF012003F059FFE02003F068FF77
:104320000F2003F053FF2A2003F050FF282003F052
:104330004DFF082003F04AFF0E2003F047FF08203E
:1043400003F044FF542003F041FFA92003F03EFF97
:10435000432003F03BFF0A2003F038FF0F2003F057
:1043600035FF002003F032FF002003F02FFF002074
:1043700003F02CFF002003F029FFE12003F038FFB9
:10438000002003F023FF152003F020FF172003F087
:104390001DFF072003F01AFF112003F017FF06206E
:1043A00003F014FF2B2003F011FF562003F00EFF43
:1043B0003C2003F00BFF052003F008FF102003F062
:1043C00005FF0F2003F002FF3F2003F0FFFE3F2018
:1043D00003F0FCFE0F2003F0F9FE2B2003F008FF92
:1043E000002003F0F3FE002003F0F0FE012003F0B4
:1043F000EDFE3F2003F0EAFE2A2003F0F9FE002044
:1044000003F0E4FE002003F0E1FE002003F0DEFEF6
:10441000EF2003F0DBFE112003F0EAFEB8E0A680F7
:10442000E3E648457ED1112003F0E2FE142006F0B9
:10443000B1FFD02003F0DCFE072003F0C7FE4220CE
:1044400003F0C4FE1D2003F0C1FED12003F0D0FE16
:10445000002003F0BBFE1A2003F0B8FE092003F091
:10446000B5FED22003F0C4FE012003F0AFFE2220EF
:1044700003F0ACFEC0200FE000023000001001404D
:10448000000C0140E4030020204C43442049443AFE
:1044900025780D0A0000000003F0AAFE102003F0AA
:1044A00095FE3B2003F092FE002003F08FFE0220D9
:1044B00003F08CFE112003F089FEC52003F098FE66
:1044C000032003F083FEC82003F092FE002003F0D7
:1044D0007DFE252003F07AFE212003F077FE0520E3
:1044E00003F074FE002003F071FE0A2003F06EFE5C
:1044F000652003F06BFE252003F068FE772003F0B3
:1045000065FE502003F062FE0F2003F05FFE0020E6
:1045100003F05CFEF82003F06BFE012003F056FE72
:10452000FE2000E03AE003F063FE002003F04EFEC0
:10453000022003F04BFE202003F05AFE362003F049
:1045400057FE082003F042FE3A2003F051FE5520AA
:1045500003F03CFE2B2003F04BFE002003F036FE60
:10456000002003F033FE012003F030FE3F2003F073
:104570002DFE2A2003F03CFE002003F027FE002041
:1045800003F024FE012003F021FEDF2003F01EFED5
:10459000782006F0FFFE292001F0FBBE50457CD1BB
:1045A000ED2003F025FE012003F010FEFE2003F0B5
:1045B0000DFEEE2003F01CFEDE2003F007FE21209E
:1045C00003F004FEF12003F013FE012003F0FEFDD2
:1045D000DF2003F00DFE102003F0F8FDC42003F0EF
:1045E00007FE8F2003F0F2FDC62003F001FE00203D
:1045F00003F0ECFDE22003F0E9FDE22003F0E6FD2C
:10460000E22003F0E3FDBF2003F0F2FDAA2003F057
:10461000DDFDB02003F0ECFD0D2003F0D7FD002000
:1046200003F0D4FD0D2003F0D1FD002003F0CEFDFA
:10463000112003F0CBFD002003F0C8FD192003F08A
:10464000C5FD002003F0C2FD212003F0BFFD0020C6
:1046500003F0BCFD2D2003F0B9FD002003F0B6FDF2
:104660003D2003F0B3FD002003F0B0FD5D2003F01A
:10467000ADFD002003F0AAFD5D2003F0A7FD0020A2
:1046800003F0A4FDB12003F0B3FD802003F09EFDF4
:10469000002003F09BFD8B2000E0FCE303F096FD7F
:1046A000002003F093FD962003F090FD002003F01E
:1046B0008DFDB22003F09CFD002003F087FD00205B
:1046C00003F084FD022003F081FD002003F07EFD55
:1046D000032003F07BFD002003F078FDB32003F0FE
:1046E00087FD002003F072FD002003F06FFD002025
:1046F00003F06CFD002003F069FD002003F066FD6F
:10470000002003F063FD002003F060FD002003F0B3
:104710005DFD002003F05AFD002003F057FD00204E
:1047200003F054FD002003F051FD002003F04EFD86
:10473000002003F04BFD002003F048FD002003F0B3
:1047400045FD002003F042FD002003F03FFD002066
:1047500003F03CFD002003F039FD002003F036FD9E
:10476000002003F033FD002003F030FD002003F0B3
:104770002DFDB42003F03CFD8B2003F027FD00202D
:1047800003F024FD962003F021FD002003F01EFD20
:10479000A12003F01BFD002003F018FDB52003F05D
:1047A00027FD022003F012FD002003F00FFD03207F
:1047B00003F00CFD002003F009FD042003F006FDCA
:1047C000002003F003FDB62003F012FD002003F0EB
:1047D000FDFC002003F0FAFCB72003F009FD0020E7
:1047E00003F0F4FC002003F0F1FC3F2003F0EEFCAA
:1047F000002003F0EBFC5E2003F0E8FC002003F057
:10480000E5FC642003F0E2FC002003F0DFFC8C20D8
:1048100003F0DCFC002003F0D9FCAC2003F0D6FC54
:10482000002003F0D3FCDC2003F0D0FC002003F0D8
:10483000CDFC702003F0CAFC002003F0C7FC9020E0
:1048400003F0C4FC002003F0C1FCEB2003F0BEFC2D
:10485000002003F0BBFCDC2003F0B8FC002003F0D8
:10486000B5FCB82003F0C4FC002003F0AFFC00202E
:1048700003F0ACFC002003F0A9FC002003F0A6FC30
:10488000002003F0A3FC002003F0A0FC002003F0B4
:104890009DFC002003F09AFCBA2003F0A9FC242020
:1048A00003F094FC002003F091FC002003F08EFC48
:1048B000002003F08BFCC12003F09AFC202003F0C1
:1048C00085FC002003F082FC542003F07FFC0020D4
:1048D00003F07CFCFF2003F079FC002003F076FC61
:1048E000C22003F085FC0A2003F070FC002003F0D6
:1048F0006DFC042003F06AFC002003F067FCC32079
:1049000003F076FC3C2003F061FC002003F05EFC29
:104910003A2003F05BFC002003F058FC392003F040
:1049200055FC002003F052FC372003F04FFC002020
:1049300003F04CFC3C2003F049FC002003F046FC53
:10494000362003F043FC002003F040FC322003F04B
:104950003DFC002003F03AFC2F2003F037FC002040
:1049600003F034FC2C2003F031FC002003F02EFC7B
:10497000292003F02BFC002003F028FC262003F064
:1049800025FC002003F022FC242003F01FFC002063
:1049900003F01CFC242003F019FC002003F016FC9B
:1049A000232003F013FC002003F010FC3C2003F054
:1049B0000DFC002003F00AFC362003F007FC002069
:1049C00003F004FC322003F001FC002003F0FEFBA6
:1049D0002F2003F0FBFB002003F0F8FB2C2003F05A
:1049E000F5FB002003F0F2FB292003F0EFFB002091
:1049F00003F0ECFB262003F0E9FB002003F0E6FBCC
:104A0000242003F0E3FB002003F0E0FB242003F06C
:104A1000DDFB002003F0DAFB232003F0D7FB0020AE
:104A200003F0D4FBC42003F0E3FB622003F0CEFBD1
:104A3000002003F0CBFB052003F0C8FB002003F0AF
:104A4000C5FB842003F0C2FB002003F0BFFBF02075
:104A500003F0BCFB002003F0B9FB182003F0B6FB09
:104A6000002003F0B3FBA42003F0B0FB002003F010
:104A7000ADFB182003F0AAFB002003F0A7FB502099
:104A800003F0A4FB002003F0A1FB0C2003F09EFB2D
:104A9000002003F09BFB172003F098FB002003F09D
:104AA00095FB952003F092FB002003F08FFBF32091
:104AB00003F08CFB002003F089FBE62003F086FB6B
:104AC000002003F083FBC52003F092FB322003F0AB
:104AD0007DFB002003F07AFB442003F077FB0020ED
:104AE00003F074FB652003F071FB002003F06EFB04
:104AF000762003F06BFB002003F068FB882003F0B6
:104B000065FB002003F062FBC62003F071FB202050
:104B100003F05CFB002003F059FB172003F056FB69
:104B2000002003F053FB012003F050FB002003F0B2
:104B30004DFBC72003F05CFB002003F047FB002087
:104B400003F044FB002003F041FB002003F03EFB98
:104B5000C82003F04DFB002003F038FB002003F0D9
:104B600035FB002003F032FB002003F02FFBC920AF
:104B700003F03EFB002003F029FB002003F026FB9E
:104B8000002003F023FB002003F020FB002003F0B3
:104B90001DFB002003F01AFB002003F017FB002090
:104BA00003F014FB002003F011FB002003F00EFBC8
:104BB000002003F00BFB002003F008FB002003F0B3
:104BC00005FB002003F002FB002003F0FFFA0020A9
:104BD00003F0FCFAE02003F00BFB162003F0F6FADA
:104BE000002003F0F3FA1C2003F0F0FA002003F099
:104BF000EDFA212003F0EAFA002003F0E7FA36206C
:104C000003F0E4FA002003F0E1FA462003F0DEFAB4
:104C1000002003F0DBFA522003F0D8FA002003F062
:104C2000D5FA642003F0D2FA002003F0CFFA7A20FC
:104C300003F0CCFA002003F0C9FA8B2003F0C6FA87
:104C4000002003F0C3FA992003F0C0FA002003F01B
:104C5000BDFAA82003F0BAFA002003F0B7FAB92091
:104C600003F0B4FA002003F0B1FAC42003F0AEFA66
:104C7000002003F0ABFACA2003F0A8FA002003F0EA
:104C8000A5FAD22003F0A2FA002003F09FFAD9205F
:104C900003F09CFA002003F099FAE02003F096FA62
:104CA000002003F093FAF32003F090FA002003F0C1
:104CB0008DFAE12003F09CFA162003F087FA002019
:104CC00003F084FA1C2003F081FA002003F07EFA3E
:104CD000222003F07BFA002003F078FA362003F05C
:104CE00075FA002003F072FA452003F06FFA0020F5
:104CF00003F06CFA522003F069FA002003F066FA20
:104D0000642003F063FA002003F060FA7A2003F0D5
:104D10005DFA002003F05AFA8B2003F057FA0020C6
:104D200003F054FA992003F051FA002003F04EFAF0
:104D3000A82003F04BFA002003F048FAB92003F052
:104D400045FA002003F042FAC42003F03FFA0020A5
:104D500003F03CFACA2003F039FA002003F036FAD7
:104D6000D22003F033FA002003F030FAD82003F009
:104D70002DFA002003F02AFAE02003F027FA0020A1
:104D800003F024FAF32003F021FA002003F01EFAC6
:104D9000E22003F02DFA052003F018FA002003F0BA
:104DA00015FA0B2003F012FA002003F00FFA1B2073
:104DB00003F00CFA002003F009FA342003F006FA9D
:104DC000002003F003FA442003F000FA002003F06F
:104DD000FDF94F2003F0FAF9002003F0F7F9612004
:104DE00003F0F4F9002003F0F1F9792003F0EEF973
:104DF000002003F0EBF9882003F0E8F9002003F02D
:104E0000E5F9972003F0E2F9002003F0DFF9A6208E
:104E100003F0DCF9002003F0D9F9B72003F0D6F94C
:104E2000002003F0D3F9C22003F0D0F9002003F0F2
:104E3000CDF9C72003F0CAF9002003F0C7F9D1204B
:104E400003F0C4F9002003F0C1F9D62003F0BEF945
:104E5000002003F0BBF9DD2003F0B8F9002003F0D7
:104E6000B5F9F32003F0B2F9002003F0AFF9E32025
:104E700003F0BEF9052003F0A9F9002003F0A6F91C
:104E80000A2003F0A3F9002003F0A0F91C2003F08E
:104E90009DF9002000E0FDE203F098F9332003F0D3
:104EA00095F9002003F092F9442003F08FF90020D7
:104EB00003F08CF9502003F089F9002003F086F903
:104EC000622003F083F9002003F080F9782003F0DA
:104ED0007DF9002003F07AF9882003F077F90020AB
:104EE00003F074F9972003F071F9002003F06EF9D4
:104EF000A62003F06BF9002003F068F9B72003F057
:104F000065F9002003F062F9C22003F05FF9002088
:104F100003F05CF9C72003F059F9002003F056F9BB
:104F2000D12003F053F9002003F050F9D52003F00D
:104F30004DF9002003F04AF9DD2003F047F9002085
:104F400003F044F9F32003F041F9002003F03EF9A7
:104F5000E42003F04DF9012003F038F9002003F0BC
:104F600035F9012003F032F9002003F02FF9022077
:104F700003F02CF9002003F029F92A2003F026F988
:104F8000002003F023F93C2003F020F9002003F077
:104F90001DF94B2003F01AF9002003F017F95D20EA
:104FA00003F014F9002003F011F9742003F00EF956
:104FB000002003F00BF9842003F008F9002003F02F
:104FC00005F9932003F002F9002003F0FFF8A22076
:104FD00003F0FCF8002003F0F9F8B32003F0F6F832
:104FE000002003F0F3F8BE2003F0F0F8002003F0F7
:104FF000EDF8C42003F0EAF8002003F0E7F8CD2034
:1050000003F0E4F8002003F0E1F8D32003F0DEF829
:10501000002003F0DBF8DD2003F0D8F8002003F0D7
:10502000D5F8F32003F0D2F8002003F0CFF8E52004
:1050300003F0DEF8002003F0C9F8002003F0C6F802
:10504000002003F0C3F8002003F0C0F8022003F0B2
:10505000BDF8002003F0BAF8292003F0B7F80020CB
:1050600003F0B4F83C2003F0B1F8002003F0AEF8F0
:105070004B2003F0ABF8002003F0A8F85D2003F00C
:10508000A5F8002003F0A2F8742003F09FF8002098
:1050900003F09CF8842003F099F8002003F096F8C0
:1050A000932003F093F8002003F090F8A22003F07F
:1050B0008DF8002003F08AF8B32003F087F8002071
:1050C00003F084F8BE2003F081F8002003F07EF89E
:1050D000C42003F07BF8002003F078F8CD2003F023
:1050E00075F8002003F072F8D32003F06FF8002069
:1050F00003F06CF8DC2003F069F8002003F066F898
:10510000F32003F063F8002003F060F8E62003F0DA
:105110006FF8112003F05AF8002003F057F83420FC
:1051200003F054F8002003F051F8562003F04EF835
:10513000002003F04BF8762003F048F8002003F03D
:1051400045F8772003F042F8002003F03FF866208E
:1051500003F03CF8002003F039F8882003F036F81B
:10516000002003F033F8992003F030F8002003F01A
:105170002DF8BB2003F02AF8002003F027F899202F
:1051800003F024F8002003F021F8662003F01EF855
:10519000002003F01BF8552003F018F8002003F05E
:1051A00015F8552003F012F8002003F00FF8452001
:1051B00003F00CF8002003F009F8432003F006F890
:1051C000002003F003F8442003F000F8002002F070
:1051D000FDFFE72003F00CF8322002F0F7FF00207B
:1051E00002F0F4FF552002F0F1FF002002F0EEFF84
:1051F000762002F0EBFF002002F0E8FF662002F0CC
:10520000E5FF002002F0E2FF672002F0DFFF002050
:1052100002F0DCFF672002F0D9FF002002F0D6FF89
:10522000872002F0D3FF002002F0D0FF992002F087
:10523000CDFF002002F0CAFFBB2002F0C7FF002014
:1052400002F0C4FF992002F0C1FF002002F0BEFF6F
:10525000772002F0BBFF002002F0B8FF442002F0EC
:10526000B5FF002002F0B2FF562002F0AFFF002091
:1052700002F0ACFF232002F0A9FF002002F0A6FFFD
:10528000332002F0A3FF002002F0A0FF452002F02F
:105290009DFF002002F09AFFE82002F0A9FF002005
:1052A00002F094FF002002F091FF992002F08EFF9F
:1052B000002002F08BFF872002F088FF002002F020
:1052C00085FF882002F082FF002002F07FFF772018
:1052D00002F07CFF002002F079FF662002F076FFEA
:1052E000002002F073FF882002F070FF002002F01F
:1052F0006DFFAA2002F06AFF002002F067FFBB20CA
:1053000002F064FF002002F061FF992002F05EFFCE
:10531000002002F05BFF662002F058FF002002F040
:1053200055FF552002F052FF002002F04FFF55209C
:1053300002F04CFF002002F049FF442002F046FF3B
:10534000002002F043FF442002F040FF002002F062
:105350003DFF552002F03AFF002002F037FFE92020
:1053600002F046FFAA2002F031FF002002F02EFFDB
:10537000002002F02BFF002002F028FF002002F0A6
:1053800037FFAA2002F022FFCF2002F031FF0020D9
:1053900002F01CFF002002F019FF002002F016FFAF
:1053A000002002F013FF002002F010FF002002F0A6
:1053B0000DFF002002F00AFF002002F007FF00208E
:1053C00002F004FF002002F001FF002002F0FEFEC8
:1053D000002002F0FBFE002002F0F8FE002002F0A8
:1053E000F5FE002002F0F2FE002002F0EFFE0020A9
:1053F00002F0ECFEF02002F0FBFE002002F0E6FEE0
:10540000502002F0E3FE002002F0E0FE002002F057
:10541000DDFE002002F0DAFEF32002F0E9FE0020BB
:1054200002F0D4FEF92002F0E3FE062002F0CEFEE8
:10543000102002F0CBFE292002F0C8FE002002F06E
:10544000C5FE3A2002F0D4FE552002F0BFFE112026
:1054500002F0CEFE642005F09DFF292002F0C8FE78
:10546000352002F0C5FE002002F0B0FE512002F00F
:10547000BFFEFF2002F0AAFE532002F0B9FE2C204E
:1054800002F0A4FE552002F0B3FE822002F09EFE40
:105490002C20FCE3B0427DD14FF4704455212046CE
:1054A00002F0BEFE651CAA21284602F0B9FEA61C29
:1054B0005221304602F0B4FEE71C0821384602F0C3
:1054C000AFFE4FF204080121404602F0A9FE0D2173
:1054D0004FF4304002F0A4FE0D214BF2010002F027
:1054E0009FFE0D214BF2020002F09AFE4FF4364966
:1054F0003421484602F094FE34214BF2016002F060
:105500008FFE34214BF2026002F08AFE4FF4314AE2
:105510000D21504602F084FE4BF2011B0D2158462E
:1055200002F07EFE0D214BF2021002F079FE3421D2
:105530004FF4374002F074FE34214BF2017002F058
:105540006FFE34214BF2027002F06AFE00214FF42C
:10555000324002F065FE00214BF2012002F060FEB5
:1055600000214BF2022002F05BFE24214FF4384070
:1055700002F056FE24214BF6010002F051FE2421D8
:105580004BF6020002F04CFE01214FF43F4002F0C6
:1055900047FE00E0FEE30F214FF4334002F040FEEF
:1055A0000F214BF2013002F03BFE0F214BF2023093
:1055B00002F036FE34214FF4394002F031FE34213E
:1055C0004BF6011002F02CFE34214BF6021002F0D3
:1055D00027FE08214FF4354002F022FE08214BF24D
:1055E000015002F01DFE08214BF2025002F018FE9D
:1055F00003214FF4424002F013FE24214FF43A40BD
:1056000002F00EFE24214BF6012002F009FE2421B7
:105610004BF6022002F004FE00214FF43C4002F061
:10562000FFFD78214BF6014002F0FAFD00214BF618
:10563000024002F0F5FD00214FF43D4002F0F0FD84
:1056400078214BF6015002F0EBFD00214BF60250A1
:1056500002F0E6FD00214FF43E4002F0E1FD64213E
:105660004BF6016002F0DCFD00214FF4514002F0E6
:10567000D7FD33214DF2011002F0D2FD00214DF291
:10568000021002F0CDFD34214DF2031002F0C8FDEE
:1056900000214DF2041002F0C3FD3A214DF2051035
:1056A00002F0BEFD00214DF2061002F0B9FD4A21C4
:1056B0004DF2071002F0B4FD00214DF2081002F087
:1056C000AFFD5C214DF2091002F0AAFD00214DF260
:1056D0000A1002F0A5FD81214DF20B1002F0A0FD91
:1056E00000214DF20C1002F09BFDA6214DF20D1091
:1056F00002F096FD00214DF20E1002F091FDE52121
:105700004DF20F1002F08CFD01214DF2101002F04D
:1057100087FD13214DF2111002F082FD01214DF29F
:10572000121002F07DFD54214DF2131002F078FDAD
:1057300001214DF2141002F073FD82214DF215107B
:1057400002F06EFD01214DF2161002F069FDCA2132
:105750004DF2171002F064FD02214DF2181002F014
:105760005FFD00214DF2191002F05AFD02214DF2A9
:105770001A1002F055FD01214DF21B1002F050FDF0
:1057800002214DF21C1002F04BFD34214DF21D1090
:1057900002F046FD02214DF21E1002F041FD67218C
:1057A0004DF21F1002F03CFD02214DF2201002F0DC
:1057B00037FD84214DF2211002F032FD02214DF21D
:1057C000221002F02DFDA4214DF2231002F028FD3D
:1057D00002214DF2241002F023FDB7214DF22510D5
:1057E00002F01EFD02214DF2261002F019FDCF211C
:1057F0004DF2271002F014FD02214DF2281002F0A4
:105800000FFDDE214DF2291002F00AFD02214DF2BA
:105810002A1002F005FDF2214DF22B1002F000FDDE
:1058200002214DF22C1002F0FBFCFE214DF22D1056
:1058300002F0F6FC03214DF22E1002F0F1FC1021D3
:105840004DF22F1002F0ECFC03214DF2301002F06B
:10585000E7FC33214DF2311002F0E2FC03214DF25E
:10586000321002F0DDFC6D214DF2331002F0D8FC55
:1058700000214FF4524002F0D3FC33214DF20120BD
:1058800002F0CEFC00214DF2022002F0C9FC3421CE
:105890004DF2032002F0C4FC00214DF2042002F07E
:1058A000BFFC3A214DF2052002F0BAFC00214DF276
:1058B000062002F0B5FC4A214DF2072002F0B0FCB0
:1058C00000214DF2082002F0ABFC5C214DF20920D2
:1058D00002F0A6FC00214DF20A2002F0A1FC812179
:1058E0004DF20B2002F09CFC00214DF20C2002F046
:1058F00097FCA6214DF20D2002F092FC00214DF202
:105900000E2002F08DFCE5214DF20F2002F088FC04
:1059100001214DF2102002F083FC13214DF21120E1
:1059200002F07EFC01214DF2122002F079FC54219C
:105930004DF2132002F074FC01214DF2142002F00C
:105940006FFC82214DF2152002F06AFC01214DF21C
:10595000162002F065FCCA214DF2172002F060FC0F
:1059600002214DF2182002F05BFC00214DF21920BB
:1059700002F056FC02214DF21A2002F051FC0121E6
:105980004DF21B2002F04CFC02214DF21C2002F0D3
:1059900047FC34214DF21D2002F042FC02214DF261
:1059A0001E2002F03DFC67214DF21F2002F038FC62
:1059B00002214DF2202002F033FC84214DF22120FF
:1059C00002F02EFC02214DF2222002F029FCA4213B
:1059D0004DF2232002F024FC02214DF2242002F09B
:1059E0001FFCB7214DF2252002F01AFC02214DF2D6
:1059F000262002F015FCCF214DF2272002F010FCEA
:105A000002214DF2282002F00BFCDE214DF229206C
:105A100002F006FC02214DF22A2002F001FCF221E4
:105A20004DF22B2002F0FCFB02214DF22C2002F063
:105A3000F7FBFE214DF22D2002F0F2FB03214DF287
:105A40002E2002F0EDFB10214DF22F2002F0E8FB9A
:105A500003214DF2302002F0E3FB33214DF23120DF
:105A600002F0DEFB03214DF2322002F0D9FB6D2162
:105A70004DF2332002F0D4FB00214FF4534002F0EA
:105A8000CFFB33214DF2013002F0CAFB00214DF271
:105A9000023002F0C5FB34214DF2033002F0C0FBAE
:105AA00000214DF2043002F0BBFB3A214DF20530EB
:105AB00002F0B6FB00214DF2063002F0B1FB4A21A4
:105AC0004DF2073002F0ACFB00214DF2083002F03D
:105AD000A7FB5C214DF2093002F0A2FB00214DF240
